:020000040800F2
:1000000000280020A91D0008391D00083F1D000818
:10001000451D00084B1D0008511D00080000000090
:10002000000000000000000000000000571D000854
:10003000631D0008000000006F1D00087B1D000804
:10004000F11D0008F11D0008F11D0008F11D000858
:10005000F11D0008F11D0008F11D0008F11D000848
:10006000F11D0008F11D0008F11D0008F11D000838
:10007000F11D0008F11D0008F11D0008F11D000828
:10008000F11D0008F11D0008F11D0008F11D000818
:10009000F11D0008F11D0008F11D0008F11D000808
:1000A000F11D0008F11D0008F11D0008F11D0008F8
:1000B000891D0008F11D000800000000F11D000866
:1000C000F11D00080000000000000000F11D000804
:1000D00000000000F11D0008F11D000800000000F4
:1000E000F11D0008F11D0008F11D000800000000CE
:1000F0000000000000000000000000000000000000
:0C01000000000000000000005FF808F1A3
:1001100010B5054C237833B9044B13B10448AFF341
:1001200000800123237010BD840000200000000027
:100130004443000808B5034B1BB103490348AFF320
:10014000008008BD00000000880000204443000833
:1001500081F0004102E000BF83F0004330B54FEA78
:1001600041044FEA430594EA050F08BF90EA020FE5
:100170001FBF54EA000C55EA020C7FEA645C7FEA78
:10018000655C00F0E2804FEA5454D4EB5555B8BF9B
:100190006D420CDD2C4480EA020281EA030382EA0C
:1001A000000083EA010180EA020281EA0303362D9E
:1001B00088BF30BD11F0004F4FEA01314FF4801C71
:1001C0004CEA113102D0404261EB410113F0004F83
:1001D0004FEA03334CEA133302D0524263EB43033A
:1001E00094EA050F00F0A780A4F10104D5F1200ED8
:1001F0000DDB02FA0EFC22FA05F2801841F1000133
:1002000003FA0EF2801843FA05F359410EE0A5F106
:1002100020050EF1200E012A03FA0EFC28BF4CF037
:10022000020C43FA05F3C01851EBE37101F00045ED
:1002300007D54FF0000EDCF1000C7EEB00006EEBFA
:100240000101B1F5801F1BD3B1F5001F0CD3490884
:100250005FEA30004FEA3C0C04F101044FEA4452DB
:1002600012F5800F80F09A80BCF1004F08BF5FEA62
:10027000500C50F1000041EB045141EA050130BD42
:100280005FEA4C0C404141EB0101013C28BFB1F554
:10029000801FE9D291F0000F04BF01460020B1FA9F
:1002A00081F308BF2033A3F10B03B3F120020CDA72
:1002B0000C3208DD02F1140CC2F10C0201FA0CF050
:1002C00021FA02F10CE002F11402D8BFC2F1200CB5
:1002D00001FA02F120FA0CFCDCBF41EA0C0190406B
:1002E000E41AA2BF01EB0451294330BD6FEA0404B4
:1002F0001F3C1CDA0C340EDC04F11404C4F120029F
:1003000020FA04F001FA02F340EA030021FA04F3B0
:1003100045EA030130BDC4F10C04C4F1200220FA07
:1003200002F001FA04F340EA0300294630BD21FA45
:1003300004F0294630BD94F0000F83F4801306BF0B
:1003400081F480110134013D4EE77FEA645C18BFFF
:100350007FEA655C29D094EA050F08BF90EA020F96
:1003600005D054EA000C04BF1946104630BD91EA8E
:10037000030F1EBF0021002030BD5FEA545C05D191
:100380004000494128BF41F0004130BD14F58004D0
:100390003CBF01F5801130BD01F0004545F0FE4144
:1003A00041F470014FF0000030BD7FEA645C1ABF79
:1003B000194610467FEA655C1CBF0B46024650EAB0
:1003C000013406BF52EA033591EA030F41F40021DC
:1003D00030BD00BF90F0000F04BF0021704730B562
:1003E0004FF4806404F132044FF000054FF0000137
:1003F00050E700BF90F0000F04BF0021704730B5F8
:100400004FF4806404F1320410F0004548BF4042CC
:100410004FF000013EE700BF42004FEAE2014FEA21
:1004200031014FEA02701FBF12F07F4393F07F4FFC
:1004300081F06051704732F07F4208BF704793F0FF
:100440007F4F04BF41F40021704730B54FF4607412
:1004500001F0004521F000411CE700BF50EA010215
:1004600008BF704730B54FF000050AE050EA0102BE
:1004700008BF704730B511F0004502D5404261EB2E
:1004800041014FF4806404F132045FEA915C3FF46F
:10049000D8AE4FF003025FEADC0C18BF03325FEA0C
:1004A000DC0C18BF033202EBDC02C2F1200300FABD
:1004B00003FC20FA02F001FA03FE40EA0E0021FAE2
:1004C00002F11444BDE600BF70B54FF0FF0C4CF4D0
:1004D000E06C1CEA11541DBF1CEA135594EA0C0F82
:1004E00095EA0C0F00F0DEF82C4481EA030621EABD
:1004F0004C5123EA4C5350EA013518BF52EA0335F8
:1005000041F4801143F4801338D0A0FB02CE4FF0A9
:100510000005E1FB02E506F00042E0FB03E54FF0D9
:100520000006E1FB03569CF0000F18BF4EF0010ED1
:10053000A4F1FF04B6F5007F64F5407404D25FEACD
:100540004E0E6D4146EB060642EAC62141EA555180
:100550004FEAC52040EA5E504FEACE2EB4F1FD0CC2
:1005600088BFBCF5E06F1ED8BEF1004F08BF5FEA40
:10057000500E50F1000041EB045170BD06F00046F2
:1005800046EA010140EA020081EA0301B4EB5C049F
:10059000C2BFD4EB0C0541EA045170BD41F4801197
:1005A0004FF0000E013C00F3AB8014F1360FDEBFBC
:1005B000002001F0004170BDC4F10004203C35DA98
:1005C0000C341BDC04F11404C4F1200500FA05F31B
:1005D00020FA04F001FA05F240EA020001F00042BC
:1005E00021F0004110EBD37021FA04F642EB060132
:1005F0005EEA430E08BF20EAD37070BDC4F10C045C
:10060000C4F1200500FA04F320FA05F001FA04F21F
:1006100040EA020001F0004110EBD37041F100010B
:100620005EEA430E08BF20EAD37070BDC4F1200516
:1006300000FA05F24EEA020E20FA04F301FA05F27E
:1006400043EA020321FA04F001F0004121FA04F226
:1006500020EA020000EBD3705EEA430E08BF20EAF6
:10066000D37070BD94F0000F0FD101F00046400030
:1006700041EB010111F4801F08BF013CF7D041EAB2
:10068000060195F0000F18BF704703F000465200B6
:1006900043EB030313F4801F08BF013DF7D043EA87
:1006A0000603704794EA0C0F0CEA135518BF95EA3D
:1006B0000C0F0CD050EA410618BF52EA4306D1D1C4
:1006C00081EA030101F000414FF0000070BD50EAE3
:1006D000410606BF1046194652EA430619D094EA6D
:1006E0000C0F02D150EA013613D195EA0C0F05D157
:1006F00052EA03361CBF104619460AD181EA0301AB
:1007000001F0004141F0FE4141F470014FF0000062
:1007100070BD41F0FE4141F4780170BD70B54FF0FD
:10072000FF0C4CF4E06C1CEA11541DBF1CEA13557D
:1007300094EA0C0F95EA0C0F00F0A7F8A4EB05045F
:1007400081EA030E52EA03354FEA013100F0888056
:100750004FEA03334FF0805545EA131343EA12631F
:100760004FEA022245EA111545EA10654FEA0026D4
:100770000EF000419D4208BF964244F1FD0404F58D
:10078000407402D25B084FEA3202B61A65EB0305E9
:100790005B084FEA32024FF480104FF4002CB6EBA6
:1007A000020E75EB030E22BFB61A754640EA0C0026
:1007B0005B084FEA3202B6EB020E75EB030E22BF66
:1007C000B61A754640EA5C005B084FEA3202B6EBA7
:1007D000020E75EB030E22BFB61A754640EA9C0066
:1007E0005B084FEA3202B6EB020E75EB030E22BF36
:1007F000B61A754640EADC0055EA060E18D04FEAF4
:10080000051545EA16754FEA06164FEAC30343EA93
:1008100052734FEAC2025FEA1C1CC0D111F4801F60
:100820000BD141EA00014FF000004FF0004CB6E759
:1008300011F4801F04BF01430020B4F1FD0C88BFF8
:10084000BCF5E06F3FF6AFAEB5EB030C04BFB6EB03
:10085000020C5FEA500C50F1000041EB045170BDF6
:100860000EF0004E4EEA113114EB5C04C2BFD4EB23
:100870000C0541EA045170BD41F480114FF0000EA7
:10088000013C90E645EA060E8DE60CEA135594EA23
:100890000C0F08BF95EA0C0F3FF43BAF94EA0C0F26
:1008A0000AD150EA01347FF434AF95EA0C0F7FF49B
:1008B00025AF104619462CE795EA0C0F06D152EAEF
:1008C00003353FF4FDAE1046194622E750EA4106D3
:1008D00018BF52EA43067FF4C5AE50EA41047FF4E4
:1008E0000DAF52EA43057FF4EBAE12E74FF0FF3C49
:1008F00006E000BF4FF0010C02E000BF4FF0010C1A
:100900004DF804CD4FEA410C7FEA6C5C4FEA430C92
:1009100018BF7FEA6C5C1BD001B050EA410C0CBFE1
:1009200052EA430C91EA030F02BF90EA020F002043
:10093000704710F1000F91EA030F58BF994208BFAA
:1009400090422CBFD8176FEAE37040F00100704767
:100950004FEA410C7FEA6C5C02D150EA013C07D1BE
:100960004FEA430C7FEA6C5CD6D152EA033CD3D009
:100970005DF8040B704700BF8446104662468C4603
:100980001946634600E000BF01B5FFF7B7FF002836
:1009900048BF10F1000F01BD4DF808EDFFF7F4FF5F
:1009A0000CBF012000205DF808FB00BF4DF808EDEA
:1009B000FFF7EAFF34BF012000205DF808FB00BF0D
:1009C0004DF808EDFFF7E0FF94BF012000205DF82F
:1009D00008FB00BF4DF808EDFFF7CEFF94BF0120E4
:1009E00000205DF808FB00BF4DF808EDFFF7C4FFDD
:1009F00034BF012000205DF808FB00BF4FEA410C26
:100A00007FEA6C5C02D150EA013C0AD14FEA430C08
:100A10007FEA6C5C02D152EA033C02D14FF0000045
:100A200070474FF0010070474A0011D212F50012D2
:100A300011D20DD56FF47873B3EB62520ED44FEA36
:100A4000C12343F0004343EA505323FA02F07047B6
:100A50004FF00000704750EA013002D14FF0FF30F4
:100A600070474FF00000704780B500AFAF4B1B6878
:100A7000032B00F2528101A252F823F08D0A0008E4
:100A8000BF0A0008650C0008B30B0008A84B1B68E0
:100A9000A84A1360A74B1B680021184600F002FC0F
:100AA000A34B1B68642202FB03F3184601F048F8CD
:100AB000642001F059F89D4B01221A6034E10122B3
:100AC00002219D4801F097FC002204219A4801F080
:100AD00092FC00220821984801F08DFC954B1A6881
:100AE000964B1B689A4219DD00221021924801F0B2
:100AF00082FC00222021904801F07DFC012240214F
:100B00008D4801F078FC8B4B18688A4B1A688B4B28
:100B10001B68D31A194600F0C5FB16E0002210210D
:100B2000854801F068FC01222021834801F063FC24
:100B300000224021804801F05EFC7E4B1B687D4A0C
:100B400012681146184600F0ADFB7D4B1B68012B67
:100B500007D1784B1B68013B764A1360642001F093
:100B600003F8784B1B68012B11D1774B1B68714A36
:100B700013606E4B02221A60734B1B68642202FBE7
:100B800003F3184600F0DCFF642000F0EDFF6F4B2C
:100B90001B68012B40F0C3806C4B00221A60634B32
:100BA0000A221A60002000F0CBFF002000F0DCFFDA
:100BB000B5E001220421604801F01DFC0022022161
:100BC0005D4801F018FC002208215B4801F013FC8D
:100BD00000222021584801F00EFC01221021564825
:100BE00001F009FC00224021534801F004FC514B64
:100BF0001B68504A12681146184600F053FB504BD0
:100C00001B68012B07D14B4B1B68013B494A136002
:100C1000642000F0A9FF4B4B1B68012B11D1444B02
:100C20001B68444A1360414B01221A60404B1B6809
:100C3000642202FB03F3184600F082FF642000F0F8
:100C400093FF424B1B68012B6BD1404B00221A6073
:100C5000364B0A221A60002000F072FF002000F0DC
:100C600083FF5EE001220821334801F0C4FB00222B
:100C70000221314801F0BFFB002204212E4801F07F
:100C8000BAFB002240212C4801F0B5FB01221021C3
:100C9000294801F0B0FB00222021274801F0ABFBDE
:100CA000244B1868234B1A68244B1B6813441946BD
:100CB00000F0F8FA224B1B68012B07D11D4B1B6873
:100CC000013B1C4A1360642000F04EFF1D4B1B6863
:100CD000012B11D1194B1B68164A1360134B0322C9
:100CE0001A60164B1B68642202FB03F3184600F0DF
:100CF00027FF642000F038FF144B1B68012B12D132
:100D0000124B00221A60094B0A221A60002000F0E0
:100D100017FF002000F028FF05E000BF04E000BF3F
:100D200002E000BF00E000BF00BF80BDB0000020B7
:100D300004000020E8000020000801400800002016
:100D4000D8000020D00000200C000020040100206A
:100D500080B483B000AF00237B6025E0174A7B6836
:100D6000134401221A70164A7B68134401221A7038
:100D7000144A7B68134401221A70134A7B68134497
:100D800001221A70114A7B68002142F82310104A90
:100D90007B68002142F823100E4A7B68642142F8E8
:100DA00023107B6801337B607B68022BD6DD00BF9C
:100DB00000BF0C37BD4680BC704700BFA0000020BC
:100DC000A4000020A8000020AC00002004010020A6
:100DD000F8000020EC00002080B582B000AF0023B6
:100DE0007B608EE04B4A7B68134419784A4A7B68E3
:100DF00013440A461A70494A7B6813441978454AD5
:100E00007B6813440A461A707868FFF7F3FA0246C3
:100E10000B464FF000004FF0804102F003FB4FF013
:100E200000023F4BFFF750FB02460B4610461946A7
:100E3000FFF7FAFD03469BB219463A4801F0C4FA9F
:100E400003461946354A7B6813440A461A70334AEA
:100E50007B6813441A782F497B680B441B789A42AD
:100E60004CD12C4A7B6813441A782B497B680B447D
:100E70001B789A4242D12C4A7B6813441A7826493F
:100E80007B680B441B789A4219D0234A7B68134431
:100E90001978254A7B6813440A461A70224A7B68EF
:100EA00013441B78002B29D1204A7B68012142F88A
:100EB00023101F4A7B68642142F823101EE01A4A5F
:100EC0007B6813441B78002B18D1194A7B6852F8B1
:100ED00023305A1E16497B6841F82320144A7B6848
:100EE00052F82330002B09DC124A7B68012142F8BA
:100EF00023100D4A7B68134400221A707B6801336B
:100F00007B607B68022B7FF76DAF00BF00BF0837A7
:100F1000BD4680BDA8000020AC000020A400002039
:100F20000000604000080140A000002004010020F3
:100F3000EC000020F800002080B582B000AF78609F
:100F40007B68002B23D100220121C04801F053FA15
:100F500000220221BD4801F04EFA00220421BB48C4
:100F600001F049FA00220821B84801F044FA0022B1
:100F70001021B64801F03FFA00222021B34801F0C9
:100F80003AFA01224021B14801F035FA83E17B6849
:100F9000012B23D101220121AC4801F02CFA0022BF
:100FA0000221AA4801F027FA00220421A74801F0F3
:100FB00022FA01220821A54801F01DFA0122102180
:100FC000A24801F018FA01222021A04801F013FAEA
:100FD000012240219D4801F00EFA5CE17B68022B62
:100FE00023D100220121994801F005FA00220221B3
:100FF000964801F000FA01220421944801F0FBF91F
:1010000000220821914801F0F6F9002210218F48B2
:1010100001F0F1F9012220218C4801F0ECF90022C5
:1010200040218A4801F0E7F935E17B68032B23D1A1
:1010300000220121854801F0DEF9002202218348C7
:1010400001F0D9F900220421804801F0D4F90022EE
:1010500008217E4801F0CFF9012210217B4801F0E0
:10106000CAF901222021794801F0C5F90022402166
:10107000764801F0C0F90EE17B68042B23D10122F0
:101080000121724801F0B7F9002202216F4801F0F6
:10109000B2F9002204216D4801F0ADF901220821C6
:1010A0006A4801F0A8F901221021684801F0A3F96B
:1010B00000222021654801F09EF90022402163486A
:1010C00001F099F9E7E07B68052B23D1002201218B
:1010D0005E4801F090F9012202215C4801F08BF991
:1010E00000220421594801F086F9002208215748BE
:1010F00001F081F901221021544801F07CF900220D
:101100002021524801F077F9002240214F4801F098
:1011100072F9C0E07B68062B23D1002201214B48E5
:1011200001F069F901220221484801F064F9002226
:101130000421464801F05FF900220821434801F0EC
:101140005AF900221021414801F055F900222021CE
:101150003E4801F050F9002240213C4801F04BF993
:1011600099E07B68072B23D100220121374801F049
:1011700042F900220221354801F03DF90022042104
:10118000324801F038F901220821304801F033F9E2
:10119000012210212D4801F02EF9012220212B4897
:1011A00001F029F901224021284801F024F972E0D8
:1011B0007B68082B23D100220121244801F01BF970
:1011C00000220221214801F016F9002204211F48C3
:1011D00001F011F9002208211C4801F00CF900224D
:1011E00010211A4801F007F900222021174801F0C8
:1011F00002F900224021154801F0FDF84BE07B6820
:10120000092B25D100220121104801F0F4F8002219
:1012100002210E4801F0EFF8002204210B4801F0F2
:10122000EAF800220821094801F0E5F8012210211E
:10123000064801F0E0F800222021044801F0DBF824
:1012400000224021014801F0D6F824E0000C0140C2
:1012500001220121124801F0CEF80122022110489A
:1012600001F0C9F8012204210D4801F0C4F801225F
:1012700008210B4801F0BFF801221021084801F0B5
:10128000BAF801222021064801F0B5F801224021D8
:10129000034801F0B0F800BF0837BD4680BD00BF6D
:1012A000000C014080B483B000AF786039607B6887
:1012B000184A82FB03129210DB17D31A164A1360E6
:1012C0007968144B83FB01239A10CB17D21A13466B
:1012D0009B0013445B00CA1A0F4B5A603B680D4ACF
:1012E00082FB03129210DB17D31A0B4A9360396802
:1012F000084B83FB01239A10CB17D21A13469B008D
:1013000013445B00CA1A044BDA6000BF0C37BD46B9
:1013100080BC7047676666661001002080B500AF2C
:1013200001224FF400610E4801F065F801224FF4EC
:1013300080510B4801F05FF801224FF4005108483A
:1013400001F059F8074B1B681846FFF7F5FD00221E
:101350004FF48061024801F04EF800BF80BD00BF2D
:10136000000801401001002080B500AF01224FF4B9
:1013700080610E4801F03FF801224FF480510B4884
:1013800001F039F801224FF40051084801F033F818
:10139000074B5B681846FFF7CFFD00224FF4006152
:1013A000024801F028F800BF80BD00BF00080140DE
:1013B0001001002080B500AF01224FF480610E487B
:1013C00001F019F801224FF400610B4801F013F805
:1013D00001224FF40051084801F00DF8074B9B68BB
:1013E0001846FFF7A9FD00224FF48051024801F092
:1013F00002F800BF80BD00BF0008014010010020BE
:1014000080B500AF01224FF480610E4800F0F3FF79
:1014100001224FF400610B4800F0EDFF01224FF470
:101420008051084800F0E7FF074BDB681846FFF7DC
:1014300083FD00224FF40051024800F0DCFF00BFA2
:1014400080BD00BF000801401001002080B584B0BD
:1014500000AFF860B9607A602E4B1B68042B4CD843
:1014600001A252F823F000BF93140008AD14000845
:10147000C7140008E11400087D140008B968F86872
:10148000FFF710FF234B00221A60786800F01CFB66
:101490003CE0FFF743FF204B1B68012B2FD11D4B76
:1014A00001221A60786800F00FFB28E0FFF75CFF6C
:1014B000194B1B68012B24D1164B02221A60786845
:1014C00000F002FB1DE0FFF775FF134B1B68012BBB
:1014D00019D1104B03221A60786800F0F5FA12E077
:1014E000FFF78EFF0C4B1B68012B0ED1094B00221E
:1014F0001A60786800F0E8FA07E000BF06E000BF75
:1015000004E000BF02E000BF00E000BF00BF1037F2
:10151000BD4680BD00000020B800002080B500AFAF
:1015200000F068FC00F018F800F09EF800F050F8A9
:10153000084801F0B1FB322000F0DAFAFFF708FCAE
:101540000A2263216320FFF781FF00F05BF9FFF7B8
:101550008BFAF5E72001002080B590B000AF07F1CD
:10156000180328220021184601F054FF3B1D0022D9
:101570001A605A609A60DA601A610223BB61012323
:10158000BB621023FB6200237B6307F1180318463C
:1015900000F04AFF0346002B01D000F0D3F80F23E0
:1015A0007B600023BB600023FB6000233B610023C2
:1015B0007B613B1D0021184601F0B6F90346002B64
:1015C00001D000F0BFF800BF4037BD4680BD00002D
:1015D00080B586B000AF07F1080300221A605A6098
:1015E0009A60DA603B4600221A605A601D4B4FF049
:1015F00080421A601B4B41F63F725A60194B002221
:101600009A60184B0922DA60164B00221A61154BBA
:1016100000229A61134801F0EFFA0346002B01D033
:1016200000F090F84FF48053BB6007F108031946AF
:101630000C4801F085FC0346002B01D000F082F835
:1016400000233B6000237B603B461946054801F0C0
:101650004DFE0346002B01D000F074F800BF183790
:10166000BD4680BD2001002080B586B000AF07F1E7
:10167000080300221A605A609A60DA60284B9B695E
:10168000274A43F004039361254B9B6903F004034D
:101690007B607B68224B9B69214A43F0080393617E
:1016A0001F4B9B6903F008033B603B68002243F635
:1016B0007E411C4800F09FFE00227F211A4800F066
:1016C0009AFE43F67E43BB600123FB6000233B612F
:1016D00002237B6107F108031946124800F0FAFC67
:1016E0004FF46073BB600023FB6001233B6107F193
:1016F000080319460B4800F0EDFC7F23BB60012373
:10170000FB6000233B6102237B6107F1080319465C
:10171000054800F0DFFC00BF1837BD4680BD00BFA4
:101720000010024000080140000C014080B582B06A
:1017300000AF786000F02CFAFFF74EFB00BF0837CF
:10174000BD4680BD80B400AF72B600BFFEE70000AA
:1017500080B582B000AF78600B467B80214B1B6860
:10176000022B22D0022B33DC002B02D0012B09D01C
:101770002EE000F03BF81B4B01221A60192000F00C
:10178000CBF92AE07B8801221946786800F033FE05
:10179000154B1B68012B1DD1124B02221A6000F061
:1017A00025F8192000F0B8F914E07B8800221946CA
:1017B000786800F020FE0C4B1B68012B0CD1094B04
:1017C00001221A6000F012F8192000F0A5F903E0D8
:1017D00000BF02E000BF00E000BF00BF0837BD4609
:1017E00080BD00BFB4000020C800002080B500AF5D
:1017F00000227E21024800F0FEFD00BF80BD00BF38
:101800000008014080B500AFA24B1B680A3B032BC8
:1018100000F2508101A252F823F000BF2D180008F9
:101820003918000803190008CD190008994B0B223C
:101830001A60012000F05CF9974B1B6802211846E2
:10184000FFF730FD02219548FFF782FF10219348F2
:10185000FFF77EFF924B5B68012B1ED1914B1B68FB
:10186000012B35D18C4B1B680A338B4A13608A4B92
:101870001B68632B04DD884B1B68643B864A13603E
:10188000854B1B6802211846FFF70CFD642000F011
:101890002FF9834B00225A601AE0834B5B68012BBF
:1018A00016D17D4B1B6801337B4A13607A4B1B6852
:1018B000632B04DD784B1B68643B774A1360764BDF
:1018C0001B6802211846FFF7EDFC774B00225A6097
:1018D000754B9B68012B05D1734B00229A606D4BB1
:1018E00000221A60704B1B68002B00F0E5806E4BE5
:1018F00000221A60674B0C221A60012000F0F8F8F1
:10190000DAE06A4B1B6803211846FFF7CBFC042181
:101910006248FFF71DFF20216048FFF719FF604B69
:101920005B68012B1ED15F4B1B68012B35D15F4BD0
:101930001B680A335D4A13605C4B1B68632B04DD34
:101940005A4B1B68643B594A1360584B1B68032170
:101950001846FFF7A7FC642000F0CAF8504B00229D
:101960005A601AE0504B5B68012B16D14F4B1B6835
:1019700001334E4A13604D4B1B68632B04DD4B4B08
:101980001B68643B494A1360484B1B680221184698
:10199000FFF788FC444B00225A60434B9B68012BA5
:1019A00005D1414B00229A603A4B00221A603E4B0F
:1019B0001B68002B00F082803B4B00221A60354BE5
:1019C0000D221A60012000F093F877E0384B1B6875
:1019D00004211846FFF766FC08213048FFF7B8FEDF
:1019E00040212E48FFF7B4FE2D4B5B68012B1ED122
:1019F0002C4B1B68012B35D12D4B1B680A332C4A0D
:101A000013602B4B1B68632B04DD294B1B68643B65
:101A1000274A1360264B1B6804211846FFF742FC37
:101A2000642000F065F81E4B00225A601AE01E4B3D
:101A30005B68012B16D11E4B1B6801331C4A1360D7
:101A40001B4B1B68632B04DD194B1B68643B184A56
:101A50001360174B1B6802211846FFF723FC124B3B
:101A600000225A60104B9B68012B05D10E4B0022BF
:101A70009A60084B00221A600B4B1B68002B1FD08A
:101A8000094B00221A60034B00221A60012000F06B
:101A90002FF815E0B00000200400002000080140ED
:101AA000F8000020C00000200401002008000020F1
:101AB0000C00002000BF04E000BF02E000BF00E017
:101AC00000BF00BF80BD00BF80B483B000AF7860AE
:101AD000054A7B681360054B00221A6000BF0C3773
:101AE000BD4680BC704700BFBC000020B80000208D
:101AF00080B483B000AF7860054A7B681360054B03
:101B000000221A6000BF0C37BD4680BC704700BF82
:101B1000C4000020C000002080B483B000AF786013
:101B2000054A7B681360054B00221A6000BF0C3722
:101B3000BD4680BC704700BFCC000020C80000201C
:101B400080B483B000AF7860054A7B681360054BB2
:101B500000221A6000BF0C37BD4680BC704700BF32
:101B6000D4000020D000002080B483B000AF7860A3
:101B7000054A7B681360054B00221A6000BF0C37D2
:101B8000BD4680BC704700BFDC000020D8000020AC
:101B900080B400AF314B1B68002B0BDD2F4B1B6853
:101BA000013B2E4A13602D4B1B68002B02DC2C4B93
:101BB00001221A602B4B1B68002B0BDD294B1B6885
:101BC000013B284A1360274B1B68002B02DC264B85
:101BD00001221A60254B1B68002B0BDD234B1B6871
:101BE000013B224A1360214B1B68002B02DC204B77
:101BF00001221A601F4B1B68002B0BDD1D4B1B685D
:101C0000013B1C4A13601B4B1B68002B02DC1A4B68
:101C100001221A60194B1B68002B0BDD174B1B6848
:101C2000013B164A1360154B1B68002B02DC144B5A
:101C300001221A60134B1B68002B0BDD114B1B6834
:101C4000013B104A13600F4B1B68002B02DC0E4B4C
:101C500001221A6000BFBD4680BC7047BC00002056
:101C6000B8000020C4000020C0000020CC000020EC
:101C7000C8000020D4000020D0000020DC0000209C
:101C8000D8000020E4000020E000002080B485B0EF
:101C900000AF154B9B69144A43F001039361124B4B
:101CA0009B6903F00103BB60BB680F4BDB690E4A05
:101CB00043F08053D3610C4BDB6903F080537B60AE
:101CC0007B680A4B5B68FB60FB6823F0E063FB60AA
:101CD000FB6843F08063FB60044AFB68536000BF0D
:101CE0001437BD4680BC7047001002400000014020
:101CF00080B584B000AF78607B681B68B3F1804F1B
:101D000013D10C4BDB690B4A43F00103D361094B40
:101D1000DB6903F00103FB60FB68002200211C204B
:101D200000F0A1F91C2000F0BAF900BF1037BD4641
:101D300080BD00BF0010024080B400AFFEE780B459
:101D400000AFFEE780B400AFFEE780B400AFFEE76F
:101D500080B400AFFEE780B400AF00BFBD4680BCDA
:101D6000704780B400AF00BFBD4680BC704780B4F0
:101D700000AF00BFBD4680BC704780B500AF00F02B
:101D80007FF800BF80BD000080B500AF024800F0C2
:101D9000CFFF00BF80BD00BF2001002080B400AF96
:101DA00000BFBD4680BC70470C480D490D4A00235A
:101DB00002E0D458C4500433C4188C42F9D30A4A00
:101DC0000A4C002301E013600432A242FBD3FFF768
:101DD000E5FF01F0FBFAFFF7A1FB704700000020D0
:101DE00084000020D0430008840000206C01002003
:101DF000FEE7000080B500AF084B1B68074A43F0C0
:101E000010031360032000F023F90F2000F008F8FE
:101E1000FFF73CFF0023184680BD00BF00200240B2
:101E200080B582B000AF7860124B1A68124B1B78F5
:101E300019464FF47A73B3FBF1F3B2FBF3F3184690
:101E400000F03BF90346002B01D001230EE07B6834
:101E50000F2B0AD8002279684FF0FF3000F003F909
:101E6000064A7B681360002300E001231846083708
:101E7000BD4680BD10000020180000201400002086
:101E800080B400AF054B1B781A46054B1B68134402
:101E9000034A136000BFBD4680BC70471800002095
:101EA0006801002080B400AF024B1B681846BD4695
:101EB00080BC70476801002080B485B000AF7860B6
:101EC0007B6803F00703FB600C4BDB68BB60BA6800
:101ED0004FF6FF031340BB60FB681A02BB68134355
:101EE00043F0BF6343F40033BB60044ABB68D36074
:101EF00000BF1437BD4680BC704700BF00ED00E056
:101F000080B400AF044BDB681B0A03F007031846DC
:101F1000BD4680BC704700BF00ED00E080B483B0D8
:101F200000AF0346FB7197F90730002B0BDBFB7901
:101F300003F01F02064997F907305B09012000FAF8
:101F400002F241F8232000BF0C37BD4680BC704729
:101F500000E100E080B483B000AF03463960FB715C
:101F600097F90730002B0ADB3B68DAB20C4997F986
:101F700007301201D2B20B4483F800230AE03B6819
:101F8000DAB20849FB7903F00F03043B1201D2B225
:101F90000B441A7600BF0C37BD4680BC704700BFAB
:101FA00000E100E000ED00E080B489B000AFF8602F
:101FB000B9607A60FB6803F00703FB61FB69C3F15A
:101FC0000703042B28BF0423BB61FB690433062BE2
:101FD00002D9FB69033B00E000237B614FF0FF3235
:101FE000BB6902FA03F3DA43BB681A407B699A4083
:101FF0004FF0FF317B6901FA03F3D9437B680B4053
:10200000134318462437BD4680BC704780B582B064
:1020100000AF78607B68013BB3F1807F01D301237F
:102020000FE00A4A7B68013B53600F214FF0FF30FD
:10203000FFF790FF054B00229A60044B07221A60BD
:10204000002318460837BD4680BD00BF10E000E001
:1020500080B582B000AF78607868FFF72DFF00BFD1
:102060000837BD4680BD80B586B000AF0346B96075
:102070007A60FB7300237B61FFF742FF78617A6827
:10208000B9687869FFF790FF024697F90F3011465B
:102090001846FFF75FFF00BF1837BD4680BD80B50B
:1020A00082B000AF0346FB7197F907301846FFF77F
:1020B00035FF00BF0837BD4680BD80B582B000AF98
:1020C00078607868FFF7A2FF034618460837BD46D8
:1020D00080BD000080B48BB000AF78603960002311
:1020E0007B6200233B6248E101227B6A02FA03F330
:1020F000FB613B681B68FA691340BB61BA69FB6905
:102100009A4240F037813B685B68A34A93425ED0B5
:10211000A14A934275D8A14A934258D09F4A93420C
:102120006FD89F4A934252D09D4A934269D89D4AA4
:1021300093424CD09B4A934263D89B4A934246D0E9
:10214000994A93425DD8122B2AD8122B59D801A252
:1021500052F823F0CF210008A9210008BB21000874
:10216000FD210008032200080322000803220008C2
:1021700003220008032200080322000803220008AB
:10218000032200080322000803220008032200089B
:102190000322000803220008B1210008C52100081D
:1021A000824A934213D02CE03B68DB683B6229E013
:1021B0003B68DB6804333B6224E03B68DB68083340
:1021C0003B621FE03B68DB680C333B621AE03B6814
:1021D0009B68002B02D104233B6213E03B689B68A1
:1021E000012B05D108233B627B68FA691A6109E07B
:1021F00008233B627B68FA695A6103E000233B6273
:1022000000E000BFBB69FF2B01D87B6801E07B6861
:1022100004337B61BB69FF2B02D87B6A9B0002E021
:102220007B6A083B9B003B617B691A680F213B6915
:1022300001FA03F3DB431A40396A3B6901FA03F3FD
:102240001A437B691A603B685B6803F08053002B7C
:1022500000F09080564B9B69554A43F0010393610F
:10226000534B9B6903F00103BB60BB68514A7B6A17
:102270009B08023352F82330FB607B6A03F00303B0
:102280009B000F2202FA03F3DB43FA681340FB6062
:102290007B68494A93420DD07B68484A934207D0F5
:1022A0007B68474A934201D1022304E0032302E002
:1022B000012300E000237A6A02F0030292009340B7
:1022C000FA681343FB603B497B6A9B080233FA6858
:1022D00041F823203B685B6803F48033002B06D071
:1022E000384B1A683749BB6913430B6006E0354B1E
:1022F0001A68BB69DB43334913400B603B685B687A
:1023000003F40033002B06D02E4B5A682D49BB69CD
:1023100013434B6006E02B4B5A68BB69DB432949EA
:1023200013404B603B685B6803F48013002B06D0BE
:10233000244B9A682349BB6913438B6006E0214B09
:102340009A68BB69DB431F4913408B603B685B683D
:1023500003F40013002B06D01A4BDA681949BB6945
:102360001343CB6006E0174BDA68BB69DB431549C2
:102370001340CB607B6A01337B623B681A687B6ADF
:1023800022FA03F3002B7FF4AFAE00BF00BF2C375F
:10239000BD4680BC704700BF000032100000311005
:1023A0000000221000002110000012100000111087
:1023B000001002400000014000080140000C0140F4
:1023C000001001400004014080B485B000AF786087
:1023D0000B467B807B689A687B881340002B02D079
:1023E0000123FB7301E00023FB73FB7B18461437CA
:1023F000BD4680BC704780B483B000AF78600B46A8
:102400007B8013467B707B78002B03D07A887B68B7
:102410001A6103E07B881A047B681A6100BF0C37DD
:10242000BD4680BC7047000080B586B000AF7860C4
:102430007B68002B01D101236CE27B681B6803F0F1
:102440000103002B00F08780924B5B6803F00C03C4
:10245000042B0CD08F4B5B6803F00C03082B12D1BC
:102460008C4B5B6803F48033B3F5803F0BD1894B11
:102470001B6803F40033002B6CD07B685B68002B77
:1024800068D1012346E27B685B68B3F5803F06D1E3
:10249000804B1B687F4A43F4803313602EE07B68D7
:1024A0005B68002B0CD17B4B1B687A4A23F480338A
:1024B0001360784B1B68774A23F4802313601DE078
:1024C0007B685B68B3F5A02F0CD1724B1B68714A17
:1024D00043F4802313606F4B1B686E4A43F48033D0
:1024E00013600BE06B4B1B686A4A23F48033136064
:1024F000684B1B68674A23F4802313607B685B6822
:10250000002B13D0FFF7CEFC386108E0FFF7CAFCC0
:1025100002463B69D31A642B01D90323FAE15D4BD0
:102520001B6803F40033002BF0D014E0FFF7BAFC73
:10253000386108E0FFF7B6FC02463B69D31A642B0A
:1025400001D90323E6E1534B1B6803F40033002B4E
:10255000F0D100E000BF7B681B6803F00203002B92
:1025600063D04C4B5B6803F00C03002B0BD0494B42
:102570005B6803F00C03082B1CD1464B5B6803F42B
:102580008033002B16D1434B1B6803F00203002B52
:1025900005D07B681B69012B01D00123BAE13D4BBB
:1025A0001B6823F0F8027B685B69DB003949134341
:1025B0000B603AE07B681B69002B20D0364B012270
:1025C0001A60FFF76FFC386108E0FFF76BFC02460A
:1025D0003B69D31A022B01D903239BE12D4B1B68C6
:1025E00003F00203002BF0D02A4B1B6823F0F80203
:1025F0007B685B69DB00274913430B6015E0264BC2
:1026000000221A60FFF74EFC386108E0FFF74AFC31
:1026100002463B69D31A022B01D903237AE11D4BF1
:102620001B6803F00203002BF0D17B681B6803F0EA
:102630000803002B3AD07B689B69002B19D0174BFD
:1026400001221A60FFF72EFC386108E0FFF72AFC30
:1026500002463B69D31A022B01D903235AE10D4BE1
:102660005B6A03F00203002BF0D0012000F0A6FA11
:102670001CE00A4B00221A60FFF714FC38610FE0DF
:10268000FFF710FC02463B69D31A022B08D903233B
:1026900040E100BF0010024000004242800442427C
:1026A0009E4B5B6A03F00203002BE9D17B681B6839
:1026B00003F00403002B00F0A6800023FB75974B6A
:1026C000DB6903F08053002B0DD1944BDB69934AF7
:1026D00043F08053D361914BDB6903F08053BB60BF
:1026E000BB680123FB758E4B1B6803F48073002BC2
:1026F00018D18B4B1B688A4A43F480731360FFF731
:10270000D1FB386108E0FFF7CDFB02463B69D31AE5
:10271000642B01D90323FDE0814B1B6803F4807314
:10272000002BF0D07B68DB68012B06D17B4B1B6A4A
:102730007A4A43F0010313622DE07B68DB68002BCB
:102740000CD1764B1B6A754A23F001031362734B5D
:102750001B6A724A23F0040313621CE07B68DB6887
:10276000052B0CD16D4B1B6A6C4A43F004031362BA
:102770006A4B1B6A694A43F0010313620BE0674B23
:102780001B6A664A23F001031362644B1B6A634AA7
:1027900023F0040313627B68DB68002B15D0FFF77E
:1027A00081FB38610AE0FFF77DFB02463B69D31AE3
:1027B00041F28832934201D90323ABE0574B1B6AA5
:1027C00003F00203002BEED014E0FFF76BFB38613F
:1027D0000AE0FFF767FB02463B69D31A41F28832F1
:1027E000934201D9032395E04C4B1B6A03F002038B
:1027F000002BEED1FB7D012B05D1484BDB69474A0D
:1028000023F08053D3617B68DB69002B00F081806B
:10281000424B5B6803F00C03082B61D07B68DB69DB
:10282000022B46D13F4B00221A60FFF73BFB386179
:1028300008E0FFF737FB02463B69D31A022B01D9A8
:10284000032367E0354B1B6803F00073002BF0D1C6
:102850007B681B6AB3F5803F08D1304B5B6823F47B
:1028600000327B689B682D4913434B602B4B5B68A0
:1028700023F474127B68196A7B685B6A0B432749EF
:1028800013434B60274B01221A60FFF70BFB3861A3
:1028900008E0FFF707FB02463B69D31A022B01D978
:1028A000032337E01D4B1B6803F00073002BF0D0AF
:1028B0002FE01C4B00221A60FFF7F4FA386108E0A1
:1028C000FFF7F0FA02463B69D31A022B01D9032322
:1028D00020E0124B1B6803F00073002BF0D118E0CE
:1028E0007B68DB69012B01D1012313E00B4B5B6893
:1028F000FB60FB6803F480327B681B6A9A4206D156
:10290000FB6803F470127B685B6A9A4201D0012372
:1029100000E0002318461837BD4680BD0010024075
:10292000007000406000424280B584B000AF786023
:1029300039607B68002B01D10123D0E06A4B1B6812
:1029400003F007033A689A4210D9674B1B6823F0DB
:10295000070265493B6813430B60634B1B6803F038
:1029600007033A689A4201D00123B8E07B681B68EC
:1029700003F00203002B20D07B681B6803F00403E4
:10298000002B05D0594B5B68584A43F4E063536011
:102990007B681B6803F00803002B05D0534B5B6872
:1029A000524A43F460535360504B5B6823F0F0028B
:1029B0007B689B684D4913434B607B681B6803F041
:1029C0000103002B40D07B685B68012B07D1474B8C
:1029D0001B6803F40033002B15D101237FE07B68D3
:1029E0005B68022B07D1414B1B6803F00073002B7F
:1029F00009D1012373E03D4B1B6803F00203002B58
:102A000001D101236BE0394B5B6823F003027B6843
:102A10005B68364913434B60FFF744FAF8600AE0FD
:102A2000FFF740FA0246FB68D31A41F2883293421C
:102A300001D9032353E02D4B5B6803F00C027B6844
:102A40005B689B009A42EBD1274B1B6803F007039E
:102A50003A689A4210D2244B1B6823F0070222499D
:102A60003B6813430B60204B1B6803F007033A6875
:102A70009A4201D0012332E07B681B6803F0040313
:102A8000002B08D0194B5B6823F4E0627B68DB689D
:102A9000164913434B607B681B6803F00803002B47
:102AA00009D0124B5B6823F460527B681B69DB0022
:102AB0000E4913434B6000F021F802460B4B5B6854
:102AC0001B0903F00F030A49CB5C22FA03F3094AFE
:102AD0001360094B1B681846FFF7A2F9002318463C
:102AE0001037BD4680BD00BF0020024000100240EC
:102AF00070430008100000201400002090B48AB039
:102B000000AF2A4B3C1D0FCB84E80F0040F201239D
:102B10003B800023FB610023BB6100237B62002319
:102B20007B6100233B62224B5B68FB61FB6903F026
:102B30000C03042B02D0082B03D02DE01D4B3B626D
:102B40002DE0FB699B0C03F00F0307F128021344EF
:102B500013F8243C7B61FB6903F48033002B13D012
:102B6000134B5B685B0C03F0010307F1280213446D
:102B700013F8283CBB617B690E4A02FB03F2BB6978
:102B8000B2FBF3F37B6204E07B690B4A02FB03F3C5
:102B90007B627B6A3B6202E0064B3B6200BF3B6AA2
:102BA00018462837BD4690BC704700BF60430008F8
:102BB0000010024000127A0000093D0080B485B088
:102BC00000AF78600A4B1B680A4AA2FB03235B0A2A
:102BD0007A6802FB03F3FB6000BFFB685A1EFA60D1
:102BE000002BF9D100BF00BF1437BD4680BC704731
:102BF00010000020D34D621080B582B000AF786025
:102C00007B68002B01D1012341E07B6893F83D30C4
:102C1000DBB2002B06D17B68002283F83C20786869
:102C2000FFF766F87B68022283F83D207B681A680C
:102C30007B6804331946104600F06AFA7B6801226B
:102C400083F846207B68012283F83E207B680122BE
:102C500083F83F207B68012283F840207B680122B3
:102C600083F841207B68012283F842207B6801229F
:102C700083F843207B68012283F844207B6801228B
:102C800083F845207B68012283F83D200023184605
:102C90000837BD4680BD000080B485B000AF7860C5
:102CA0007B6893F83D30DBB2012B01D0012335E086
:102CB0007B68022283F83D207B681B68DA687B68AA
:102CC0001B6842F00102DA607B681B68164A934277
:102CD00009D07B681B68B3F1804F04D07B681B6808
:102CE000124A934211D17B681B689B6803F007036B
:102CF000FB60FB68062B10D07B681B681A687B683A
:102D00001B6842F001021A6007E07B681B681A68C2
:102D10007B681B6842F001021A60002318461437D2
:102D2000BD4680BC704700BF002C0140000400403D
:102D300080B582B000AF78607B681B681B6903F0C8
:102D40000203022B22D17B681B68DB6803F00203BD
:102D5000022B1BD17B681B686FF002021A617B6833
:102D600001221A777B681B689B6903F00303002B21
:102D700003D0786800F0B1F905E0786800F0A4F9B4
:102D8000786800F0B3F97B6800221A777B681B68CB
:102D90001B6903F00403042B22D17B681B68DB68EA
:102DA00003F00403042B1BD17B681B686FF0040243
:102DB0001A617B6802221A777B681B689B6903F49F
:102DC0004073002B03D0786800F087F905E078683D
:102DD00000F07AF9786800F089F97B6800221A77A8
:102DE0007B681B681B6903F00803082B22D17B68F2
:102DF0001B68DB6803F00803082B1BD17B681B688A
:102E00006FF008021A617B6804221A777B681B68DE
:102E1000DB6903F00303002B03D0786800F05DF951
:102E200005E0786800F050F9786800F05FF97B6899
:102E300000221A777B681B681B6903F01003102BB4
:102E400022D17B681B68DB6803F01003102B1BD1B9
:102E50007B681B686FF010021A617B6808221A7782
:102E60007B681B68DB6903F44073002B03D0786830
:102E700000F033F905E0786800F026F9786800F092
:102E800035F97B6800221A777B681B681B6903F0A1
:102E90000103012B0ED17B681B68DB6803F0010383
:102EA000012B07D17B681B686FF001021A617868FB
:102EB000FEF73CFC7B681B681B6903F08003802BDA
:102EC0000ED17B681B68DB6803F08003802B07D181
:102ED0007B681B686FF080021A61786800F067FAFF
:102EE0007B681B681B6903F04003402B0ED17B6895
:102EF0001B68DB6803F04003402B07D17B681B682D
:102F00006FF040021A61786800F0F9F87B681B687E
:102F10001B6903F02003202B0ED17B681B68DB6844
:102F200003F02003202B07D17B681B686FF0200281
:102F30001A61786800F032FA00BF0837BD4680BDDC
:102F400080B584B000AF786039607B6893F83C301E
:102F5000012B01D10223B3E07B68012283F83C20DE
:102F60007B68022283F83D207B681B689B68FB60BE
:102F7000FB6823F07703FB60FB6823F47F43FB606F
:102F80007B681B68FA689A603B681B68B3F5005F52
:102F90003ED0B3F5005F00F28780B3F5805F00F0AC
:102FA0008580B3F5805F7FD8702B1AD0702B7BD8CB
:102FB000602B50D0602B77D8502B3CD0502B73D83F
:102FC000402B58D0402B6FD8302B64D0302B6BD88F
:102FD000202B60D0202B67D8002B5CD0102B5AD030
:102FE00062E07B6818683B6899683B685A683B6890
:102FF000DB6800F05CF97B681B689B68FB60FB6822
:1030000043F07703FB607B681B68FA689A604EE0C8
:103010007B6818683B6899683B685A683B68DB685E
:1030200000F045F97B681B689A687B681B6842F46E
:1030300080429A603BE07B6818683B6859683B684F
:10304000DB681A4600F0BCF87B681B685021184604
:1030500000F013F92BE07B6818683B6859683B68FF
:10306000DB681A4600F0DAF87B681B6860211846B6
:1030700000F003F91BE07B6818683B6859683B68FF
:10308000DB681A4600F09CF87B681B6840211846F4
:1030900000F0F3F80BE07B681A683B681B68194680
:1030A000104600F0EAF802E000BF00E000BF7B68D5
:1030B000012283F83D207B68002283F83C20002316
:1030C00018461037BD4680BD80B483B000AF78602D
:1030D00000BF0C37BD4680BC704780B483B000AFE2
:1030E000786000BF0C37BD4680BC704780B483B0A9
:1030F00000AF786000BF0C37BD4680BC704780B41D
:1031000083B000AF786000BF0C37BD4680BC70470D
:1031100080B485B000AF786039607B681B68FB6065
:103120007B68254A934207D07B68B3F1804F03D078
:103130007B68224A934208D1FB6823F07003FB604E
:103140003B685B68FA681343FB607B681A4A9342EA
:1031500007D07B68B3F1804F03D07B68174A934256
:1031600008D1FB6823F44073FB603B68DB68FA68B6
:103170001343FB60FB6823F080023B685B691343E9
:10318000FB607B68FA681A603B689A687B68DA6261
:103190003B681A687B689A627B68074A934203D14E
:1031A0003B681A697B681A637B6801225A6100BF19
:1031B0001437BD4680BC7047002C0140000400401D
:1031C00080B487B000AFF860B9607A60FB681B6AB2
:1031D0007B61FB681B6A23F00102FB681A62FB68D3
:1031E0009B693B613B6923F0F0033B617B681B01FA
:1031F0003A6913433B617B6923F00A037B617A6977
:10320000BB6813437B61FB683A699A61FB687A6922
:103210001A6200BF1C37BD4680BC704780B487B0BF
:1032200000AFF860B9607A60FB681B6A23F0100297
:10323000FB681A62FB689B697B61FB681B6A3B61E8
:103240007B6923F470437B617B681B037A691343BA
:103250007B613B6923F0A0033B61BB681B013A69BA
:1032600013433B61FB687A699A61FB683A691A62A9
:1032700000BF1C37BD4680BC704780B485B000AF2E
:10328000786039607B689B68FB60FB6823F07003A3
:10329000FB603A68FB68134343F00703FB607B68FD
:1032A000FA689A6000BF1437BD4680BC704780B48E
:1032B00087B000AFF860B9607A603B60FB689B68DC
:1032C0007B617B6923F47F437B613B681A027B68E7
:1032D0001A43BB6813437A6913437B61FB687A69BD
:1032E0009A6000BF1C37BD4680BC704780B485B073
:1032F00000AF786039607B6893F83C30012B01D1D6
:10330000022341E07B68012283F83C207B68022293
:1033100083F83D207B681B685B68FB607B681B68EB
:103320009B68BB60FB6823F07003FB603B681B6815
:10333000FA681343FB607B681B68FA685A607B6815
:103340001B68144A934209D07B681B68B3F1804F15
:1033500004D07B681B68104A93420CD1BB6823F0F1
:103360008003BB603B685B68BA681343BB607B68E3
:103370001B68BA689A607B68012283F83D207B68ED
:10338000002283F83C20002318461437BD4680BC39
:10339000704700BF002C01400004004080B483B09F
:1033A00000AF786000BF0C37BD4680BC704780B46A
:1033B00083B000AF786000BF0C37BD4680BC70475B
:1033C000014B1868704700BF1C00002070B5002634
:1033D0000C4D0D4C641BA410A64209D100F0B2FFA5
:1033E00000260A4D0A4C641BA410A64205D170BDEC
:1033F00055F8043B98470136EEE755F8043B9847EB
:103400000136F2E7C8430008C8430008C843000873
:10341000CC43000803460244934200D1704703F8AE
:10342000011BF9E72DE9F8431F46804689461646F9
:1034300000F0A6F84D4B044693F900300D460133D9
:1034400015D032463B4630463946FDF7D7FA70B9BB
:1034500042464B4640464946FDF7D0FA002200233B
:1034600048B130463946FDF797FA00287BD120460F
:103470002946BDE8F88340464946FDF78DFAE0B19C
:103480000022002330463946FDF786FA00286AD12B
:103490003046394600F039FE0028E8D000220023EB
:1034A00030463946FDF782FA0028E0D0FFF788FF62
:1034B0002123002403602E4DD9E72046294600F041
:1034C00024FEA8BB4046494600F01FFE80B33046AC
:1034D000394600F01AFE58B322462B4620462946AC
:1034E000FDF78CFA60B1FFF76BFF21230022036028
:1034F000002310461946FDF711F904460D46B6E7BC
:10350000FFF75EFF22230022036049460023404666
:10351000FDF74CFA002448B13046394600F002FE6F
:1035200032463B46FDF738FA0028C4D0114D9EE7DD
:103530000022002320462946FDF72EFA002896D0C7
:103540004046494600F0E1FD002890D0304639461B
:1035500000F0DBFD00288AD0FFF732FF2223002491
:103560000025036083E70024034D80E780000020EE
:103570000000F0FF0000F07F0000F03F00000000BE
:103580002DE9F04F93B0CDE90223DDE9022626F0C4
:10359000004555EA02030746884600F0BF847E4B8B
:1035A00021F000449C428946824609DC03D178B967
:1035B000A54202DD0CE09D4202DC9D420ED16AB1C3
:1035C00004F1404404F5801454EA0A0300F0A68490
:1035D000724813B0BDE8F04F00F09EBDB9F1000F86
:1035E00039DA6F4B9D4254DCA3F154739D4240F392
:1035F000A6842B15A3F2FF33142B0FDDC3F1340384
:1036000022FA03F101FA03F3934240F0988401F0A7
:103610000101C1F10203009382B15EE0002A5AD198
:10362000C3F1140345FA03F101FA03F3AB4240F08E
:10363000838401F00101C1F102030093594B9D42C3
:1036400030D1002E80F274843A464346002055491A
:10365000FDF764F82FE000230093002A3DD14E4B84
:103660009D42EBD104F1404303F5801353EA0A0372
:1036700000F054844C4B9C420DDD002E80F25484AB
:103680004FF0000B4FF0000C5846614613B0BDE8F8
:10369000F08F0223E0E7002EF2DADDE902B303F156
:1036A000004CF1E7B6F1804F08D13A464346384620
:1036B0004146FCF709FF83468C46E5E73B4B9E42BB
:1036C0000BD1B9F1000F08DB3846414613B0BDE815
:1036D000F04F00F06BBC002300933846414600F0E9
:1036E00011FD83468C46BAF1000F29D124B12D4B30
:1036F00029F040429A4223D1002E07DA5A46634607
:1037000000202849FDF70AF883468C46B9F1000FDE
:10371000BADA009B04F1404404F58014234308D135
:103720005A46634658466146FCF716FD02460B466C
:103730008EE7009B012BA7D10CF100439C46A3E729
:103740004FEAD973013B0C930C9A009B134304D1AD
:103750003A46434638464146E6E7154B9D4240F31C
:10376000F98003F104739D420F4B09DD9C420CDC90
:10377000002E85DA06A3D3E900231046194698E700
:103780009C42F5DB074B9C4214DD002EF2DC77E710
:103790009C7500883CE4377E0000F07F8043000881
:1037A000FFFF3F430000F03FFFFFEF3F0000E03F1F
:1037B0000000E041614600225846614BFCF7CCFC1A
:1037C00055A3D3E9002304460D46FCF77DFE54A320
:1037D000D3E9002306460F4620462946FCF774FE2F
:1037E000002282468B4620462946564BFCF76CFE4B
:1037F00002460B464CA1D1E90001FCF7ADFC224684
:103800002B46FCF761FE02460B4600204E49FCF7B2
:10381000A3FC22462B468046894620462946FCF7D3
:1038200053FE02460B4640464946FCF74DFE40A378
:10383000D3E90023FCF748FE02460B4650465946A2
:10384000FCF78AFC4FF0000A02460B4604460D4680
:1038500030463946FCF782FC32463B4650468B46A2
:10386000FCF77AFC02460B4620462946FCF774FC1E
:10387000DDE90267009B0C9A013B13434FF0000601
:103880004FF000020CBF314B2D4B04460D46DDE9D5
:103890000201CDE9002332463B46FCF75DFC52466F
:1038A0005B46FCF711FEDDE902238046894620468F
:1038B0002946FCF709FE02460B4640464946FCF7FE
:1038C0004DFC32463B468046894650465946FCF7F9
:1038D000FBFD04460D460B46024649464046CDE9EF
:1038E0000245FCF73BFC1A4B824699420F460E46B6
:1038F00040F3ED8201F13F4303F5E003034300F0A1
:10390000E7810DA3D3E90023DDE90001FCF7DCFD2D
:1039100009A3D3E90023CCE6000000604715F73F78
:1039200044DF5DF80BAE543E555555555555D53FC2
:10393000FE822B654715F73F9C7500883CE4377E77
:103940000000F03F0000D03F0000E03F0000F0BF6B
:10395000FFFF8F40D44B002209EA030343B95846C6
:103960006146D24BFCF7B0FD6FF0340283460C4643
:103970002315A3F2FF3313440B93CD4BC4F313046D
:1039800044F07F559C4245F4401508DDC94B9C42EC
:1039900040F39C810B9BA5F5801501330B9300260A
:1039A000F3000D93C44B584603EBC603D3E9003430
:1039B00029461A46CDE908342346FCF7CDFBDA4602
:1039C0002B465246CDE90E01DDE90801FCF7C6FBA6
:1039D00002460B460020B949FCF7A0FE02460B4602
:1039E000CDE91001DDE90E01FCF76EFDCDE9060120
:1039F000DDE90634CDE9043400230022AB466D1026
:103A000045F00055049305F50025DDE9048905EB33
:103A100086434046494614461D46FCF755FD02467E
:103A20000B46DDE90E01FCF797FBDDE908230646AE
:103A30000F4620462946FCF78FFB02460B465046B0
:103A40005946FCF789FB42464B46FCF73DFD0246D2
:103A50000B4630463946FCF77FFBDDE91023FCF7C7
:103A600033FDDDE90623CDE9080110461946FCF7D0
:103A70002BFD7BA3D3E9002304460D46FCF724FD70
:103A800079A3D3E90023FCF769FB22462B46FCF718
:103A90001BFD77A3D3E90023FCF760FB22462B46EE
:103AA000FCF712FD74A3D3E90023FCF757FB224671
:103AB0002B46FCF709FD72A3D3E90023FCF74EFB6C
:103AC00022462B46FCF700FD6FA3D3E90023FCF749
:103AD00045FB224606460F462B4620462946FCF764
:103AE000F3FC02460B4630463946FCF7EDFC044633
:103AF0000D46DDE9060142464B46FCF72FFBDDE9AA
:103B00000823FCF7E1FC22462B46FCF727FB424644
:103B100006460F464B4640464946FCF7D5FC002278
:103B2000674B82468B46FCF719FB32463B46FCF757
:103B300015FB049C0D4622460B4640464946FCF7C1
:103B4000C3FC002280468946204629465C4BFCF790
:103B500003FB52465B46FCF7FFFA02460B46304633
:103B60003946FCF7F9FADDE90623FCF7ADFC2246FD
:103B700006460F46DDE908012B46FCF7A5FC024688
:103B80000B4630463946FCF7E9FA06460F46024630
:103B90000B4640464946FCF7E1FA3DA3D3E9002332
:103BA000049C0D462046FCF78FFC42464B46CDE96F
:103BB000060120462946FCF7CFFA02460B4630465E
:103BC0003946FCF7C9FA34A3D3E90023FCF77CFC9F
:103BD00033A3D3E9002306460F4620462946FCF7C7
:103BE00073FC02460B4630463946FCF7B7FA0D9A8D
:103BF000344B1344D3E90023FCF7B0FA80460B980A
:103C00008946FCF7F7FB04460D460D9A2E4BDDE97D
:103C100006011344D3E9006742464B46FCF79EFA7F
:103C200032463B46FCF79AFA22462B46FCF796FAB8
:103C3000DDF810A022462B4650468B46FCF78CFA46
:103C400032463B46FCF788FADDE90623FCF784FAA6
:103C500002460B464046494608E600BFAFF30080E7
:103C6000EF4E454A287ECA3F65DBC9934A86CD3F61
:103C700001411DA96074D13F4D268F515555D53F47
:103C8000FFAB6FDBB66DDB3F033333333333E33FDF
:103C9000000000E009C7EE3FFD033ADC09C7EE3F34
:103CA000F5015B14E02F3EBE0000F07F00004043B2
:103CB0008E98030079B60B00884300080000F03F9F
:103CC00000000840A843000898430008012667E662
:103CD0009DA3D3E9002340464946FCF73FFA22461C
:103CE000CDE904012B4650463946FCF735FA024629
:103CF0000B46DDE90401FCF777FE00287FF401AEF6
:103D0000A54A26F00043934240F303814FF4801A02
:103D100000201B15A3F2FE334AFA03F33344C3F326
:103D20000A529E4FA2F2FF321741C3F3130A23EA4D
:103D30000701C2F114024AF4801A0B464AFA02FA49
:103D4000002E024629462046B8BFCAF1000AFCF7F9
:103D500003FACDE90201DDE90201002442464B46A7
:103D6000FCF7FCF97AA3D3E9002320460D46FCF7C3
:103D7000ABFBDDE9022306460F4620462946FCF749
:103D8000EBF902460B4640464946FCF7E5F972A3BB
:103D9000D3E90023FCF798FB71A3D3E90023804605
:103DA000894620462946FCF78FFB02460B464046D3
:103DB0004946FCF7D3F904460D4602460B46304609
:103DC0003946FCF7CBF932463B4680468946FCF73C
:103DD000C3F902460B4620462946FCF7BDF9424688
:103DE00006460F464B4640464946FCF76DFB5EA330
:103DF000D3E9002304460D46FCF766FB5CA3D3E938
:103E00000023FCF7A9F922462B46FCF75DFB5AA3D9
:103E1000D3E90023FCF7A2F922462B46FCF754FB1A
:103E200057A3D3E90023FCF797F922462B46FCF76A
:103E30004BFB55A3D3E90023FCF790F922462B4610
:103E4000FCF742FB02460B4640464946FCF784F924
:103E500004460D4602460B4640464946FCF734FBF5
:103E60000022CDE902014FF0804320462946FCF7AD
:103E700073F902460B46DDE90201FCF74FFC3246BE
:103E800004460D463B4640464946FCF71DFB32467C
:103E90003B46FCF763F902460B4620462946FCF7F1
:103EA0005BF942464B46FCF757F902460B460020A9
:103EB0003B49FCF751F901EB0A54B4F5801F2BDAAA
:103EC000524600F0B9F9DDE90023FFF7F2BB354BAC
:103ED00021F000479F427FF713AF334B0B4403435E
:103EE0000BD02BA3D3E90023DDE90001FCF7ECFAAA
:103EF00027A3D3E90023FFF7DCBB22462B46FCF7C0
:103F00002BF942464B46FCF765FD00283FF4F8AE1E
:103F1000E7E74FF0000A1EE72146D4E74FF0000B19
:103F2000DFF87CC0FFF7B0BBDDE902BCFFF7ACBB3C
:103F300038464146FFF7BFBB0092FFF77FBB002327
:103F4000FFF769BBAFF30080FE822B654715973CF6
:103F500000000000432EE63FEF39FAFE422EE63F16
:103F6000396CA80C615C20BED0A4BE726937663E75
:103F7000F16BD2C541BDBB3E2CDE25AF6A56113F69
:103F800093BDBE166CC1663F3E5555555555C53F50
:103F900059F3F8C21F6EA5010000E03FFFFF0F00BC
:103FA0000000F03FFFCB904000346F3FDFF850C17E
:103FB0002DE9F0413CEA010C0B4606460D460A4647
:103FC000074604460ED10246FCF77EFA02460B462F
:103FD00030462946FCF7C2F806460D4630462946CB
:103FE000BDE8F08100290DDC21F0004C5CEA0707F8
:103FF000F4D039B10246FCF7AFF802460B46FCF7A5
:104000008DFBE9E7121574D00020D507C3F3130325
:1040100043F480115EBFE30F640003EB4101E30F43
:10402000A2F2FF3603EB4103162501464FF40012BE
:10403000761064008F189F42DEBFDB1BB918801812
:104040005B00013D03EBD4734FEA52024FEA440494
:10405000F0D12A464FF0200E4FF000478B4207EB7D
:10406000050C02DC13D1A44511D8BCF1000F0CEBF8
:10407000070543DA002D41DB01F101085B1A4146D7
:10408000A44588BF03F1FF33A4EB0C043A445B0062
:10409000BEF1010E03EBD4734FEA57074FEA440415
:1040A000DCD1234306D0541C0BBF724601320130D1
:1040B00022F001024310C1074FEA520203F17F537D
:1040C00003F5001348BF42F00042104603EB0651CF
:1040D00082E7E30A15396405002BFAD0DE020AD51F
:1040E000C2F1200024FA00F0551E944003434A1BFD
:1040F0008AE71146F0E75B000132EFE78846BDE74B
:104100000000F07F21F00041704741F0004000F5D1
:104110008010C00F7047000000200149704700BFA9
:104120000000F87FC1F30A5CF7B5ACF2FF37132F3C
:1041300002460B460C4605464FEAD17659DC002F65
:104140002ADA21F00041014322D0C3F313010143D5
:104150004D420D4336495C0C2D0B05F400256404DB
:1041600001EBC60145EA0403D1E900452046294692
:10417000FBF7F4FFCDE90001DDE900012B46224603
:10418000FBF7EAFF21F0004343EAC67102460B4603
:104190001046194603B0F0BD2649394103EA010033
:1041A0001043F5D04B0804EA510152EA01050CD046
:1041B00024EA03034FF48024132F0CBF4FF0004573
:1041C000002544FA07F743EA07041949234601EB9F
:1041D000C6062A46D6E9004520462946FBF7BEFF1B
:1041E000CDE90001DDE9000122462B46FBF7B4FFD3
:1041F000CCE7332F05DDB7F5806FC9D1FBF7AEFFF4
:10420000C4E74FF0FF31ACF2134C21FA0CF1084235
:10421000BED010EA510218BF4FF080454FEA51035B
:104220001EBF20EA030345FA0CFC43EA0C05CCE769
:10423000B8430008FFFF0F00F8B5C1F30A56044663
:104240000D4617460B4696B921F00043034339D07B
:10425000354B0022FCF738F9344B04469F420D469B
:104260000FDA2DA3D3E90023FCF72EF906E040F284
:10427000FF7296420AD10246FBF770FF04460D46D4
:1042800020E00B46C1F30A51A1F1360640F2FE725E
:10429000B91991420EDD22A3D3E9002305F00044B1
:1042A00044F0FC4141F45F1141F41051204841F0C9
:1042B0003C01D9E7002908DD23F0FF4323F4E003A4
:1042C00043EA015520462946F8BD11F1350F16DAAB
:1042D0004CF250339F424FEAD57308DD154C144819
:1042E00063F3DF740EA3D3E900232146BCE7124C2D
:1042F000124863F3DF7408A3D3E90023F5E723F042
:10430000FF43363123F4E00343EA015520462946B2
:1043100000220B4BA8E700BF59F3F8C21F6EA5019E
:104320009C7500883CE4377E00005043B03CFFFFA2
:104330009C7500883CE4377E1F6EA50159F3F8C2D6
:104340000000903CF8B500BFF8BC08BC9E46704722
:0C435000F8B500BFF8BC08BC9E467047E2
:1043600002030405060708090A0B0C0D0E0F1010B6
:104370000000000000000000010203040607080915
:104380000000000000000000000000000000F03FFE
:10439000000000000000F83F0000000000000000E6
:1043A0000000004003B8E23F0000000000000000F1
:1043B00006D0CF43EBFD4C3E000000000000304330
:0843C00000000000000030C302
:0443C80035010008B3
:0443CC0011010008D3
:1043D00004000000050000000200000003000000CF
:1043E0000024F40010000000010000002000002064
:1043F00000000000000000000000000000000000BD
:1044000000000000000000000000000000000000AC
:10441000000000000000000000000000000000009C
:10442000000000000000000000000000000000008C
:10443000000000000000000000000000000000007C
:10444000000000000000000000000000000000006C
:04445000FF00000069
:0400000508001DA929
:00000001FF
